{
  "contractName": "CalsoftStaking",
  "abi": [
    {
      "inputs": [],
      "stateMutability": "nonpayable",
      "type": "constructor"
    },
    {
      "anonymous": false,
      "inputs": [
        {
          "indexed": false,
          "internalType": "uint256",
          "name": "poolId",
          "type": "uint256"
        },
        {
          "indexed": false,
          "internalType": "contract IERC20MetadataUpgradeable",
          "name": "depositToken",
          "type": "address"
        },
        {
          "indexed": false,
          "internalType": "contract IERC20MetadataUpgradeable",
          "name": "rewardToken",
          "type": "address"
        },
        {
          "indexed": false,
          "internalType": "uint256",
          "name": "startTime",
          "type": "uint256"
        },
        {
          "indexed": false,
          "internalType": "uint256",
          "name": "endTime",
          "type": "uint256"
        },
        {
          "indexed": false,
          "internalType": "uint256",
          "name": "rewardInterval",
          "type": "uint256"
        },
        {
          "indexed": false,
          "internalType": "uint256",
          "name": "rewardRate",
          "type": "uint256"
        }
      ],
      "name": "AddPool",
      "type": "event"
    },
    {
      "anonymous": false,
      "inputs": [
        {
          "indexed": false,
          "internalType": "address",
          "name": "previousAdmin",
          "type": "address"
        },
        {
          "indexed": false,
          "internalType": "address",
          "name": "newAdmin",
          "type": "address"
        }
      ],
      "name": "AdminChanged",
      "type": "event"
    },
    {
      "anonymous": false,
      "inputs": [
        {
          "indexed": true,
          "internalType": "address",
          "name": "beacon",
          "type": "address"
        }
      ],
      "name": "BeaconUpgraded",
      "type": "event"
    },
    {
      "anonymous": false,
      "inputs": [
        {
          "indexed": false,
          "internalType": "uint256",
          "name": "poolId",
          "type": "uint256"
        },
        {
          "indexed": true,
          "internalType": "address",
          "name": "from",
          "type": "address"
        },
        {
          "indexed": true,
          "internalType": "address",
          "name": "to",
          "type": "address"
        },
        {
          "indexed": false,
          "internalType": "uint256",
          "name": "amount",
          "type": "uint256"
        }
      ],
      "name": "Deposit",
      "type": "event"
    },
    {
      "anonymous": false,
      "inputs": [
        {
          "indexed": false,
          "internalType": "uint8",
          "name": "version",
          "type": "uint8"
        }
      ],
      "name": "Initialized",
      "type": "event"
    },
    {
      "anonymous": false,
      "inputs": [
        {
          "indexed": true,
          "internalType": "address",
          "name": "previousOwner",
          "type": "address"
        },
        {
          "indexed": true,
          "internalType": "address",
          "name": "newOwner",
          "type": "address"
        }
      ],
      "name": "OwnershipTransferred",
      "type": "event"
    },
    {
      "anonymous": false,
      "inputs": [
        {
          "indexed": false,
          "internalType": "address",
          "name": "account",
          "type": "address"
        }
      ],
      "name": "Paused",
      "type": "event"
    },
    {
      "anonymous": false,
      "inputs": [
        {
          "indexed": true,
          "internalType": "address",
          "name": "from",
          "type": "address"
        },
        {
          "indexed": true,
          "internalType": "address",
          "name": "to",
          "type": "address"
        },
        {
          "indexed": false,
          "internalType": "uint256",
          "name": "amount",
          "type": "uint256"
        }
      ],
      "name": "Reward",
      "type": "event"
    },
    {
      "anonymous": false,
      "inputs": [
        {
          "indexed": false,
          "internalType": "address",
          "name": "account",
          "type": "address"
        }
      ],
      "name": "Unpaused",
      "type": "event"
    },
    {
      "anonymous": false,
      "inputs": [
        {
          "indexed": false,
          "internalType": "uint256",
          "name": "endTime",
          "type": "uint256"
        }
      ],
      "name": "UpdateDepositEndTime",
      "type": "event"
    },
    {
      "anonymous": false,
      "inputs": [
        {
          "indexed": true,
          "internalType": "address",
          "name": "implementation",
          "type": "address"
        }
      ],
      "name": "Upgraded",
      "type": "event"
    },
    {
      "anonymous": false,
      "inputs": [
        {
          "indexed": true,
          "internalType": "address",
          "name": "user",
          "type": "address"
        },
        {
          "indexed": false,
          "internalType": "uint256",
          "name": "pid",
          "type": "uint256"
        },
        {
          "indexed": false,
          "internalType": "uint256",
          "name": "amount",
          "type": "uint256"
        }
      ],
      "name": "WithdrawAll",
      "type": "event"
    },
    {
      "anonymous": false,
      "inputs": [
        {
          "indexed": false,
          "internalType": "uint256",
          "name": "_pid",
          "type": "uint256"
        },
        {
          "indexed": true,
          "internalType": "address",
          "name": "tokenAddress",
          "type": "address"
        },
        {
          "indexed": true,
          "internalType": "address",
          "name": "_account",
          "type": "address"
        },
        {
          "indexed": false,
          "internalType": "uint256",
          "name": "_amount",
          "type": "uint256"
        }
      ],
      "name": "WithdrawRewardTokensFromPool",
      "type": "event"
    },
    {
      "inputs": [
        {
          "internalType": "contract IERC20Upgradeable",
          "name": "",
          "type": "address"
        },
        {
          "internalType": "contract IERC20Upgradeable",
          "name": "",
          "type": "address"
        }
      ],
      "name": "hasPoolExist",
      "outputs": [
        {
          "internalType": "bool",
          "name": "",
          "type": "bool"
        }
      ],
      "stateMutability": "view",
      "type": "function",
      "constant": true
    },
    {
      "inputs": [],
      "name": "name",
      "outputs": [
        {
          "internalType": "string",
          "name": "",
          "type": "string"
        }
      ],
      "stateMutability": "view",
      "type": "function",
      "constant": true
    },
    {
      "inputs": [],
      "name": "owner",
      "outputs": [
        {
          "internalType": "address",
          "name": "",
          "type": "address"
        }
      ],
      "stateMutability": "view",
      "type": "function",
      "constant": true
    },
    {
      "inputs": [],
      "name": "paused",
      "outputs": [
        {
          "internalType": "bool",
          "name": "",
          "type": "bool"
        }
      ],
      "stateMutability": "view",
      "type": "function",
      "constant": true
    },
    {
      "inputs": [
        {
          "internalType": "uint256",
          "name": "",
          "type": "uint256"
        }
      ],
      "name": "poolInfo",
      "outputs": [
        {
          "internalType": "contract IERC20MetadataUpgradeable",
          "name": "depositToken",
          "type": "address"
        },
        {
          "internalType": "contract IERC20MetadataUpgradeable",
          "name": "rewardToken",
          "type": "address"
        },
        {
          "internalType": "uint256",
          "name": "startTime",
          "type": "uint256"
        },
        {
          "internalType": "uint256",
          "name": "endTime",
          "type": "uint256"
        },
        {
          "internalType": "uint256",
          "name": "rewardInterval",
          "type": "uint256"
        },
        {
          "internalType": "uint256",
          "name": "rewardRate",
          "type": "uint256"
        }
      ],
      "stateMutability": "view",
      "type": "function",
      "constant": true
    },
    {
      "inputs": [],
      "name": "proxiableUUID",
      "outputs": [
        {
          "internalType": "bytes32",
          "name": "",
          "type": "bytes32"
        }
      ],
      "stateMutability": "view",
      "type": "function",
      "constant": true
    },
    {
      "inputs": [],
      "name": "renounceOwnership",
      "outputs": [],
      "stateMutability": "nonpayable",
      "type": "function"
    },
    {
      "inputs": [
        {
          "internalType": "uint256",
          "name": "",
          "type": "uint256"
        },
        {
          "internalType": "address",
          "name": "",
          "type": "address"
        }
      ],
      "name": "rewardsEarned",
      "outputs": [
        {
          "internalType": "uint256",
          "name": "",
          "type": "uint256"
        }
      ],
      "stateMutability": "view",
      "type": "function",
      "constant": true
    },
    {
      "inputs": [
        {
          "internalType": "uint256",
          "name": "",
          "type": "uint256"
        }
      ],
      "name": "totalDepositAmountInPool",
      "outputs": [
        {
          "internalType": "uint256",
          "name": "",
          "type": "uint256"
        }
      ],
      "stateMutability": "view",
      "type": "function",
      "constant": true
    },
    {
      "inputs": [
        {
          "internalType": "address",
          "name": "newOwner",
          "type": "address"
        }
      ],
      "name": "transferOwnership",
      "outputs": [],
      "stateMutability": "nonpayable",
      "type": "function"
    },
    {
      "inputs": [
        {
          "internalType": "address",
          "name": "newImplementation",
          "type": "address"
        }
      ],
      "name": "upgradeTo",
      "outputs": [],
      "stateMutability": "nonpayable",
      "type": "function"
    },
    {
      "inputs": [
        {
          "internalType": "address",
          "name": "newImplementation",
          "type": "address"
        },
        {
          "internalType": "bytes",
          "name": "data",
          "type": "bytes"
        }
      ],
      "name": "upgradeToAndCall",
      "outputs": [],
      "stateMutability": "payable",
      "type": "function",
      "payable": true
    },
    {
      "inputs": [
        {
          "internalType": "uint256",
          "name": "",
          "type": "uint256"
        },
        {
          "internalType": "address",
          "name": "",
          "type": "address"
        }
      ],
      "name": "userInfo",
      "outputs": [
        {
          "internalType": "uint256",
          "name": "amount",
          "type": "uint256"
        },
        {
          "internalType": "uint256",
          "name": "depositStartTime",
          "type": "uint256"
        },
        {
          "internalType": "bool",
          "name": "hasDeposited",
          "type": "bool"
        },
        {
          "internalType": "bool",
          "name": "isDeposited",
          "type": "bool"
        }
      ],
      "stateMutability": "view",
      "type": "function",
      "constant": true
    },
    {
      "inputs": [],
      "name": "initialize",
      "outputs": [],
      "stateMutability": "nonpayable",
      "type": "function"
    },
    {
      "inputs": [],
      "name": "poolLength",
      "outputs": [
        {
          "internalType": "uint256",
          "name": "",
          "type": "uint256"
        }
      ],
      "stateMutability": "view",
      "type": "function",
      "constant": true
    },
    {
      "inputs": [],
      "name": "getCurrentBlockTimestamp",
      "outputs": [
        {
          "internalType": "uint256",
          "name": "",
          "type": "uint256"
        }
      ],
      "stateMutability": "view",
      "type": "function",
      "constant": true
    },
    {
      "inputs": [
        {
          "internalType": "uint256",
          "name": "_pid",
          "type": "uint256"
        },
        {
          "internalType": "uint256",
          "name": "_endTime",
          "type": "uint256"
        }
      ],
      "name": "setPoolDepositEndTime",
      "outputs": [],
      "stateMutability": "nonpayable",
      "type": "function"
    },
    {
      "inputs": [
        {
          "internalType": "uint256",
          "name": "_pid",
          "type": "uint256"
        }
      ],
      "name": "getTotalTokensDepositedInPool",
      "outputs": [
        {
          "internalType": "uint256",
          "name": "",
          "type": "uint256"
        }
      ],
      "stateMutability": "view",
      "type": "function",
      "constant": true
    },
    {
      "inputs": [
        {
          "internalType": "uint256",
          "name": "_pid",
          "type": "uint256"
        }
      ],
      "name": "getUserDepositedTokensInPool",
      "outputs": [
        {
          "internalType": "uint256",
          "name": "",
          "type": "uint256"
        }
      ],
      "stateMutability": "view",
      "type": "function",
      "constant": true
    },
    {
      "inputs": [
        {
          "internalType": "contract IERC20MetadataUpgradeable",
          "name": "_depositToken",
          "type": "address"
        },
        {
          "internalType": "contract IERC20MetadataUpgradeable",
          "name": "_rewardToken",
          "type": "address"
        },
        {
          "internalType": "uint256",
          "name": "_startTime",
          "type": "uint256"
        },
        {
          "internalType": "uint256",
          "name": "_endTime",
          "type": "uint256"
        },
        {
          "internalType": "uint256",
          "name": "_rewardInterval",
          "type": "uint256"
        },
        {
          "internalType": "uint256",
          "name": "_rewardRate",
          "type": "uint256"
        }
      ],
      "name": "addPool",
      "outputs": [],
      "stateMutability": "nonpayable",
      "type": "function"
    },
    {
      "inputs": [
        {
          "internalType": "uint256",
          "name": "_pid",
          "type": "uint256"
        },
        {
          "internalType": "uint256",
          "name": "_amount",
          "type": "uint256"
        }
      ],
      "name": "deposit",
      "outputs": [],
      "stateMutability": "nonpayable",
      "type": "function"
    },
    {
      "inputs": [
        {
          "internalType": "uint256",
          "name": "_pid",
          "type": "uint256"
        },
        {
          "internalType": "address",
          "name": "_rewardAddress",
          "type": "address"
        }
      ],
      "name": "calculateReward",
      "outputs": [
        {
          "internalType": "uint256",
          "name": "",
          "type": "uint256"
        },
        {
          "internalType": "uint256",
          "name": "",
          "type": "uint256"
        }
      ],
      "stateMutability": "view",
      "type": "function",
      "constant": true
    },
    {
      "inputs": [
        {
          "internalType": "uint256",
          "name": "_pid",
          "type": "uint256"
        }
      ],
      "name": "claimMyReward",
      "outputs": [],
      "stateMutability": "nonpayable",
      "type": "function"
    },
    {
      "inputs": [
        {
          "internalType": "uint256",
          "name": "_pid",
          "type": "uint256"
        }
      ],
      "name": "withdrawAll",
      "outputs": [],
      "stateMutability": "nonpayable",
      "type": "function"
    },
    {
      "inputs": [
        {
          "internalType": "uint256",
          "name": "_pid",
          "type": "uint256"
        },
        {
          "internalType": "uint256",
          "name": "_amount",
          "type": "uint256"
        }
      ],
      "name": "withdrawRewardTokensFromPool",
      "outputs": [],
      "stateMutability": "nonpayable",
      "type": "function"
    }
  ],
  "bytecode": "0x60a0604052306080523480156200001557600080fd5b50600054610100900460ff1615808015620000375750600054600160ff909116105b8062000067575062000054306200014160201b620019ad1760201c565b15801562000067575060005460ff166001145b620000cf5760405162461bcd60e51b815260206004820152602e60248201527f496e697469616c697a61626c653a20636f6e747261637420697320616c72656160448201526d191e481a5b9a5d1a585b1a5e995960921b606482015260840160405180910390fd5b6000805460ff191660011790558015620000f3576000805461ff0019166101001790555b80156200013a576000805461ff0019169055604051600181527f7f26b83ff96e1f2b6a682f133852f6798a09c465da95921460cefb38474024989060200160405180910390a15b5062000150565b6001600160a01b03163b151590565b608051612f356200018860003960008181610986015281816109c601528181610a6201528181610aa20152610b350152612f356000f3fe6080604052600436106101665760003560e01c8063715018a6116100d157806396dca4c01161008a578063e2bbb15811610064578063e2bbb15814610523578063f2fde38b14610543578063fa31a89c14610563578063fee207ab1461058357600080fd5b806396dca4c014610487578063a18f07a0146104c0578063c1d5d7f9146104f557600080fd5b8063715018a6146103795780638129fc1c1461038e5780638da5cb5b146103a357806393f1a40b146103cb5780639510ea5314610447578063958e2d311461046757600080fd5b80633659cfe6116101235780633659cfe6146102b25780634036e5ba146102d25780634d400b9e1461030b5780634f1ef2861461033957806352d1902d1461034c5780635c975abb1461036157600080fd5b806306fdde031461016b578063081e3eda146101b95780630f28c97d146101d95780631526fe27146101ec57806315ef02e31461024457806335cff54214610290575b600080fd5b34801561017757600080fd5b506101a36040518060400160405280600c81526020016b4353202d205374616b696e6760a01b81525081565b6040516101b09190612907565b60405180910390f35b3480156101c557600080fd5b5061012e545b6040519081526020016101b0565b3480156101e557600080fd5b50426101cb565b3480156101f857600080fd5b5061020c61020736600461293a565b6105a3565b604080516001600160a01b039788168152969095166020870152938501929092526060840152608083015260a082015260c0016101b0565b34801561025057600080fd5b5061028061025f366004612968565b61013060209081526000928352604080842090915290825290205460ff1681565b60405190151581526020016101b0565b34801561029c57600080fd5b506102b06102ab36600461293a565b6105f7565b005b3480156102be57600080fd5b506102b06102cd3660046129a1565b61097c565b3480156102de57600080fd5b506101cb6102ed36600461293a565b600090815261012f6020908152604080832033845290915290205490565b34801561031757600080fd5b506101cb61032636600461293a565b600090815261012d602052604090205490565b6102b06103473660046129d4565b610a58565b34801561035857600080fd5b506101cb610b28565b34801561036d57600080fd5b5060655460ff16610280565b34801561038557600080fd5b506102b0610bdb565b34801561039a57600080fd5b506102b0610bef565b3480156103af57600080fd5b506033546040516001600160a01b0390911681526020016101b0565b3480156103d757600080fd5b5061041f6103e6366004612a98565b61012f60209081526000928352604080842090915290825290208054600182015460029092015490919060ff8082169161010090041684565b60408051948552602085019390935290151591830191909152151560608201526080016101b0565b34801561045357600080fd5b506102b0610462366004612abd565b610d0f565b34801561047357600080fd5b506102b061048236600461293a565b610ded565b34801561049357600080fd5b506101cb6104a2366004612a98565b61013160209081526000928352604080842090915290825290205481565b3480156104cc57600080fd5b506104e06104db366004612a98565b6110ec565b604080519283526020830191909152016101b0565b34801561050157600080fd5b506101cb61051036600461293a565b61012d6020526000908152604090205481565b34801561052f57600080fd5b506102b061053e366004612abd565b61141c565b34801561054f57600080fd5b506102b061055e3660046129a1565b611656565b34801561056f57600080fd5b506102b061057e366004612adf565b6116cc565b34801561058f57600080fd5b506102b061059e366004612abd565b6118df565b61012e81815481106105b457600080fd5b60009182526020909120600690910201805460018201546002830154600384015460048501546005909501546001600160a01b0394851696509390921693909286565b6105ff6119bc565b610607611a15565b61012e5481111561065f5760405162461bcd60e51b815260206004820152601860248201527f57697468647261773a20506f6f6c206e6f74206578697374000000000000000060448201526064015b60405180910390fd5b600081815261012f602090815260408083203384529091529020600181015442101561069d5760405162461bcd60e51b815260040161065690612b38565b6002810154610100900460ff1661070d5760405162461bcd60e51b815260206004820152602e60248201527f57697468647261773a204e6f206465706f736974656420746f6b656e2062616c60448201526d616e636520617661696c61626c6560901b6064820152608401610656565b80548061075c5760405162461bcd60e51b815260206004820152601d60248201527f57697468647261773a2042616c616e63652063616e6e6f7420626520300000006044820152606401610656565b60008061076985336110ec565b91509150600082116107bd5760405162461bcd60e51b815260206004820181905260248201527f57697468647261773a2043616c63756c6174656420526577617264207a65726f6044820152606401610656565b600161012e86815481106107d3576107d3612b95565b906000526020600020906006020160040154826107f09190612bc1565b10156108575760405162461bcd60e51b815260206004820152603060248201527f57697468647261773a2043616e20626520636c61696d6564206f6e6c7920616660448201526f1d195c881d1a19481a5b9d195c9d985b60821b6064820152608401610656565b600061012e868154811061086d5761086d612b95565b60009182526020909120600690910201600101546040516370a0823160e01b81523060048201526001600160a01b03909116906370a0823190602401602060405180830381865afa1580156108c6573d6000803e3d6000fd5b505050506040513d601f19601f820116820180604052508101906108ea9190612be3565b905082811161090b5760405162461bcd60e51b815260040161065690612bfc565b6000610918878533611a5b565b9050806109675760405162461bcd60e51b815260206004820152601d60248201527f57697468647261773a20436c61696d20526577617264204661696c65640000006044820152606401610656565b50504260019485015550505060975550565b50565b6001600160a01b037f00000000000000000000000000000000000000000000000000000000000000001630036109c45760405162461bcd60e51b815260040161065690612c3f565b7f00000000000000000000000000000000000000000000000000000000000000006001600160a01b0316610a0d600080516020612eb9833981519152546001600160a01b031690565b6001600160a01b031614610a335760405162461bcd60e51b815260040161065690612c8b565b610a3c81611d77565b6040805160008082526020820190925261097991839190611d7f565b6001600160a01b037f0000000000000000000000000000000000000000000000000000000000000000163003610aa05760405162461bcd60e51b815260040161065690612c3f565b7f00000000000000000000000000000000000000000000000000000000000000006001600160a01b0316610ae9600080516020612eb9833981519152546001600160a01b031690565b6001600160a01b031614610b0f5760405162461bcd60e51b815260040161065690612c8b565b610b1882611d77565b610b2482826001611d7f565b5050565b6000306001600160a01b037f00000000000000000000000000000000000000000000000000000000000000001614610bc85760405162461bcd60e51b815260206004820152603860248201527f555550535570677261646561626c653a206d757374206e6f742062652063616c60448201527f6c6564207468726f7567682064656c656761746563616c6c00000000000000006064820152608401610656565b50600080516020612eb983398151915290565b610be3611eef565b610bed6000611f49565b565b600054610100900460ff1615808015610c0f5750600054600160ff909116105b80610c295750303b158015610c29575060005460ff166001145b610c8c5760405162461bcd60e51b815260206004820152602e60248201527f496e697469616c697a61626c653a20636f6e747261637420697320616c72656160448201526d191e481a5b9a5d1a585b1a5e995960921b6064820152608401610656565b6000805460ff191660011790558015610caf576000805461ff0019166101001790555b610cb7611f9b565b610cbf611fca565b610cc7611ffa565b8015610979576000805461ff0019169055604051600181527f7f26b83ff96e1f2b6a682f133852f6798a09c465da95921460cefb38474024989060200160405180910390a150565b610d17611eef565b610d1f611a15565b42811015610d865760405162461bcd60e51b815260206004820152602e60248201527f456e6454696d65206d7573742062652067726561746572207468616e2063757260448201526d072656e742074696d657374616d760941b6064820152608401610656565b8061012e8381548110610d9b57610d9b612b95565b9060005260206000209060060201600301819055507f1fe0bf301be4abaec506d4b23863c39b461328f170a43b209b1e6409d0e6c84d81604051610de191815260200190565b60405180910390a15050565b610df5611a15565b61012e54600090821115610e4b5760405162461bcd60e51b815260206004820152601b60248201527f5769746864726177416c6c3a20506f6f6c206e6f7420657869737400000000006044820152606401610656565b600061012e8381548110610e6157610e61612b95565b6000918252602080832086845261012f825260408085203386529092529220600181015460069092029092019250421015610eae5760405162461bcd60e51b815260040161065690612b38565b8054610f0b5760405162461bcd60e51b815260206004820152602660248201527f5769746864726177416c6c3a204e6f7420656e6f756768207265776172642062604482015265616c616e636560d01b6064820152608401610656565b816003015481600101541015610f2957610f2584336110ec565b5092505b80546000825560028201805461ff0019169055831561109457600061012e8681548110610f5857610f58612b95565b60009182526020909120600690910201600101546040516370a0823160e01b81523060048201526001600160a01b03909116906370a0823190602401602060405180830381865afa158015610fb1573d6000803e3d6000fd5b505050506040513d601f19601f82011682018060405250810190610fd59190612be3565b90508481116110355760405162461bcd60e51b815260206004820152602660248201527f5769746864726177416c6c3a204e6f7420456e6f756768205265776172642042604482015265616c616e636560d01b6064820152608401610656565b6000611042878733611a5b565b9050806110915760405162461bcd60e51b815260206004820181905260248201527f5769746864726177416c6c3a20436c61696d20526577617264204661696c65646044820152606401610656565b50505b82546110aa906001600160a01b03163383612021565b604080518681526020810183905233917fae7bb41990cd336548a7c61b3ffa4a8207fe5e886087c23f5739a99114be7839910160405180910390a25050505050565b600082815261012f602090815260408083206001600160a01b0385168452909152812080548291908280821561140f5760006111b58461012e8b8154811061113657611136612b95565b6000918252602091829020600690910201546040805163313ce56760e01b815290516001600160a01b039092169263313ce567926004808401938290030181865afa158015611189573d6000803e3d6000fd5b505050506040513d601f19601f820116820180604052508101906111ad9190612cd7565b60ff16612073565b905060006112538261012e8c815481106111d1576111d1612b95565b6000918252602091829020600160069092020101546040805163313ce56760e01b815290516001600160a01b039092169263313ce567926004808401938290030181865afa158015611227573d6000803e3d6000fd5b505050506040513d601f19601f8201168201806040525081019061124b9190612cd7565b60ff166120ca565b9050600061012e8b8154811061126b5761126b612b95565b906000526020600020906006020160030154111561137f5761012e8a8154811061129757611297612b95565b9060005260206000209060060201600301548660010154106113075760405162461bcd60e51b815260206004820152602360248201527f506f6f6c20656e646564202c2072657761726420636c61696d656420616c726560448201526261647960e81b6064820152608401610656565b61012e8a8154811061131b5761131b612b95565b90600052602060002090600602016003015442111561137057856001015461012e8b8154811061134d5761134d612b95565b9060005260206000209060060201600301546113699190612cfa565b9250611391565b60018601546113699042612cfa565b600186015461138e9042612cfa565b92505b61012e8a815481106113a5576113a5612b95565b9060005260206000209060060201600401546127106113c49190612d0d565b8361012e8c815481106113d9576113d9612b95565b906000526020600020906006020160050154836113f69190612d0d565b6114009190612d0d565b61140a9190612bc1565b935050505b9097909650945050505050565b611424611a15565b61142e82826120ea565b600082815261012f60209081526040808320338085529252822091906114559085906110ec565b509050801561152057600061012e858154811061147457611474612b95565b60009182526020909120600690910201600101546040516370a0823160e01b81523060048201526001600160a01b03909116906370a0823190602401602060405180830381865afa1580156114cd573d6000803e3d6000fd5b505050506040513d601f19601f820116820180604052508101906114f19190612be3565b90508181116115125760405162461bcd60e51b815260040161065690612bfc565b61151d858333611a5b565b50505b600061012e858154811061153657611536612b95565b60009182526020909120600690910201546040516323b872dd60e01b8152336004820152306024820152604481018690526001600160a01b03909116906323b872dd906064016020604051808303816000875af115801561159b573d6000803e3d6000fd5b505050506040513d601f19601f820116820180604052508101906115bf9190612d2c565b9050801561164f5782546115d4908590612d4e565b8355600085815261012d6020526040812080548692906115f5908490612d4e565b909155505042600184015560028301805461ffff19166101011790556040805186815260208101869052309133917f2c0f148b435140de488c1b34647f1511c646f7077e87007bacf22ef9977a16d8910160405180910390a35b5050505050565b61165e611eef565b6001600160a01b0381166116c35760405162461bcd60e51b815260206004820152602660248201527f4f776e61626c653a206e6577206f776e657220697320746865207a65726f206160448201526564647265737360d01b6064820152608401610656565b61097981611f49565b6116d4611eef565b6116dc611a15565b6116e9868686868561235e565b6040805160c0810182526001600160a01b0380891680835288821660208085018281528587018b8152606087018b8152608088018b815260a089018b815261012e80546001818101835560008381529c5160069092027fbdaadd9f750d0166045bf387a364eadd28ba243e04512a47282aa5147a68e37f81018054938e166001600160a01b031994851617905597517fbdaadd9f750d0166045bf387a364eadd28ba243e04512a47282aa5147a68e3808901805491909d16921691909117909a5593517fbdaadd9f750d0166045bf387a364eadd28ba243e04512a47282aa5147a68e38186015591517fbdaadd9f750d0166045bf387a364eadd28ba243e04512a47282aa5147a68e382850155517fbdaadd9f750d0166045bf387a364eadd28ba243e04512a47282aa5147a68e383840155517fbdaadd9f750d0166045bf387a364eadd28ba243e04512a47282aa5147a68e38490920191909155928552610130815285852091855252928220805460ff1916821790559154909161186d91612cfa565b604080518281526001600160a01b038a81166020830152891681830152606081018890526080810187905260a0810186905260c0810185905290519192507f6793471253d979a021c338e7504b89a1b75cb9d1b2d6762cfffede96d65012ad919081900360e00190a150505050505050565b6118e7611eef565b6118ef6119bc565b61192c338261012e858154811061190857611908612b95565b60009182526020909120600160069092020101546001600160a01b03169190612021565b336001600160a01b031661012e838154811061194a5761194a612b95565b600091825260209182902060069091020160010154604080518681529283018590526001600160a01b03909116917f5a40bf17b9c4314e6d4edd69fd9033aa8a8310324f815dd388cbf3d0f850da53910160405180910390a3610b246001609755565b6001600160a01b03163b151590565b600260975403611a0e5760405162461bcd60e51b815260206004820152601f60248201527f5265656e7472616e637947756172643a207265656e7472616e742063616c6c006044820152606401610656565b6002609755565b60655460ff1615610bed5760405162461bcd60e51b815260206004820152601060248201526f14185d5cd8589b194e881c185d5cd95960821b6044820152606401610656565b60008061012e8581548110611a7257611a72612b95565b6000918252602090912060069091020190506001600160a01b038316611ada5760405162461bcd60e51b815260206004820181905260248201527f57697468647261773a20416464726573732063616e6e6f74206265207a65726f6044820152606401610656565b60018101546040516370a0823160e01b815230600482015285916001600160a01b0316906370a0823190602401602060405180830381865afa158015611b24573d6000803e3d6000fd5b505050506040513d601f19601f82011682018060405250810190611b489190612be3565b1015611ba25760405162461bcd60e51b815260206004820152602360248201527f57697468647261773a204e6f7420656e6f756768207265776172642062616c616044820152626e636560e81b6064820152608401610656565b600181015481546001600160a01b03918216911603611c5357600085815261012d60205260409081902054600183015491516370a0823160e01b8152306004820152909186916001600160a01b03909116906370a0823190602401602060405180830381865afa158015611c1a573d6000803e3d6000fd5b505050506040513d601f19601f82011682018060405250810190611c3e9190612be3565b611c489190612cfa565b1015611c5357600093505b60008415611d6757600182015460405163a9059cbb60e01b81526001600160a01b0386811660048301526024820188905260009792889291169063a9059cbb906044016020604051808303816000875af1158015611cb5573d6000803e3d6000fd5b505050506040513d601f19601f82011682018060405250810190611cd99190612d2c565b905080611d285760405162461bcd60e51b815260206004820152601960248201527f57697468647261773a205472616e73666572204661696c6564000000000000006044820152606401610656565b6000888152610131602090815260408083206001600160a01b038a16845290915281208054849290611d5b908490612d4e565b90915550600193505050505b95945050505050565b6001609755565b610979611eef565b7f4910fdfa16fed3260ed0e7147f7cc6da11a60208b5b9406d12a635614ffd91435460ff1615611db757611db2836124a0565b505050565b826001600160a01b03166352d1902d6040518163ffffffff1660e01b8152600401602060405180830381865afa925050508015611e11575060408051601f3d908101601f19168201909252611e0e91810190612be3565b60015b611e745760405162461bcd60e51b815260206004820152602e60248201527f45524331393637557067726164653a206e657720696d706c656d656e7461746960448201526d6f6e206973206e6f74205555505360901b6064820152608401610656565b600080516020612eb98339815191528114611ee35760405162461bcd60e51b815260206004820152602960248201527f45524331393637557067726164653a20756e737570706f727465642070726f786044820152681a58589b195555525160ba1b6064820152608401610656565b50611db283838361253c565b6033546001600160a01b03163314610bed5760405162461bcd60e51b815260206004820181905260248201527f4f776e61626c653a2063616c6c6572206973206e6f7420746865206f776e65726044820152606401610656565b603380546001600160a01b038381166001600160a01b0319831681179093556040519116919082907f8be0079c531659141344cd1fd0a4f28419497f9722a3daafe3b4186f6b6457e090600090a35050565b600054610100900460ff16611fc25760405162461bcd60e51b815260040161065690612d61565b610bed612567565b600054610100900460ff16611ff15760405162461bcd60e51b815260040161065690612d61565b610bed33611f49565b600054610100900460ff16611d705760405162461bcd60e51b815260040161065690612d61565b604080516001600160a01b038416602482015260448082018490528251808303909101815260649091019091526020810180516001600160e01b031663a9059cbb60e01b179052611db290849061259a565b6000601282116120a457612088826012612cfa565b61209390600a612e90565b61209d9084612d0d565b90506120c4565b6120af601283612cfa565b6120ba90600a612e90565b61209d9084612bc1565b92915050565b6000601282116120df576120af826012612cfa565b612088601283612cfa565b6000811161213a5760405162461bcd60e51b815260206004820152601b60248201527f4465706f7369743a20416d6f756e742063616e6e6f74206265203000000000006044820152606401610656565b61012e5482111561218d5760405162461bcd60e51b815260206004820152601760248201527f4465706f7369743a20506f6f6c206e6f742065786973740000000000000000006044820152606401610656565b8061012e83815481106121a2576121a2612b95565b60009182526020909120600690910201546040516370a0823160e01b81523360048201526001600160a01b03909116906370a0823190602401602060405180830381865afa1580156121f8573d6000803e3d6000fd5b505050506040513d601f19601f8201168201806040525081019061221c9190612be3565b101561227e5760405162461bcd60e51b815260206004820152602b60248201527f4465706f7369743a20496e73756666696369656e74206465706f73697420746f60448201526a6b656e2062616c616e636560a81b6064820152608401610656565b61012e828154811061229257612292612b95565b9060005260206000209060060201600201544210156122f35760405162461bcd60e51b815260206004820152601d60248201527f4465706f7369743a20506f6f6c206e6f742079657420737461727465640000006044820152606401610656565b61012e828154811061230757612307612b95565b906000526020600020906006020160030154421115610b245760405162461bcd60e51b815260206004820152601360248201527211195c1bdcda5d0e88141bdbdb08115b991959606a1b6044820152606401610656565b428310156123c95760405162461bcd60e51b815260206004820152603260248201527f4f70656e696e6754696d65206d7573742062652067726561746572207468616e60448201527102063757272656e742074696d657374616d760741b6064820152608401610656565b8282101561242a5760405162461bcd60e51b815260206004820152602860248201527f436c6f73696e672074696d652063616e74206265206265666f7265206f70656e604482015267696e672074696d6560c01b6064820152608401610656565b6000811161164f5760405162461bcd60e51b815260206004820152603760248201527f41646420506f6f6c203a205265776172642052617465284150522920696e202560448201527f204d7573742062652067726561746572207468616e20300000000000000000006064820152608401610656565b6001600160a01b0381163b61250d5760405162461bcd60e51b815260206004820152602d60248201527f455243313936373a206e657720696d706c656d656e746174696f6e206973206e60448201526c1bdd08184818dbdb9d1c9858dd609a1b6064820152608401610656565b600080516020612eb983398151915280546001600160a01b0319166001600160a01b0392909216919091179055565b6125458361266f565b6000825111806125525750805b15611db25761256183836126af565b50505050565b600054610100900460ff1661258e5760405162461bcd60e51b815260040161065690612d61565b6065805460ff19169055565b60006125ef826040518060400160405280602081526020017f5361666545524332303a206c6f772d6c6576656c2063616c6c206661696c6564815250856001600160a01b03166126db9092919063ffffffff16565b90508051600014806126105750808060200190518101906126109190612d2c565b611db25760405162461bcd60e51b815260206004820152602a60248201527f5361666545524332303a204552433230206f7065726174696f6e20646964206e6044820152691bdd081cdd58d8d9595960b21b6064820152608401610656565b612678816124a0565b6040516001600160a01b038216907fbc7cd75a20ee27fd9adebab32041f755214dbc6bffa90cc0225b39da2e5c2d3b90600090a250565b60606126d48383604051806060016040528060278152602001612ed9602791396126f2565b9392505050565b60606126ea848460008561276a565b949350505050565b6060600080856001600160a01b03168560405161270f9190612e9c565b600060405180830381855af49150503d806000811461274a576040519150601f19603f3d011682016040523d82523d6000602084013e61274f565b606091505b509150915061276086838387612845565b9695505050505050565b6060824710156127cb5760405162461bcd60e51b815260206004820152602660248201527f416464726573733a20696e73756666696369656e742062616c616e636520666f6044820152651c8818d85b1b60d21b6064820152608401610656565b600080866001600160a01b031685876040516127e79190612e9c565b60006040518083038185875af1925050503d8060008114612824576040519150601f19603f3d011682016040523d82523d6000602084013e612829565b606091505b509150915061283a87838387612845565b979650505050505050565b606083156128b45782516000036128ad576001600160a01b0385163b6128ad5760405162461bcd60e51b815260206004820152601d60248201527f416464726573733a2063616c6c20746f206e6f6e2d636f6e74726163740000006044820152606401610656565b50816126ea565b6126ea83838151156128c95781518083602001fd5b8060405162461bcd60e51b81526004016106569190612907565b60005b838110156128fe5781810151838201526020016128e6565b50506000910152565b60208152600082518060208401526129268160408501602087016128e3565b601f01601f19169190910160400192915050565b60006020828403121561294c57600080fd5b5035919050565b6001600160a01b038116811461097957600080fd5b6000806040838503121561297b57600080fd5b823561298681612953565b9150602083013561299681612953565b809150509250929050565b6000602082840312156129b357600080fd5b81356126d481612953565b634e487b7160e01b600052604160045260246000fd5b600080604083850312156129e757600080fd5b82356129f281612953565b9150602083013567ffffffffffffffff80821115612a0f57600080fd5b818501915085601f830112612a2357600080fd5b813581811115612a3557612a356129be565b604051601f8201601f19908116603f01168101908382118183101715612a5d57612a5d6129be565b81604052828152886020848701011115612a7657600080fd5b8260208601602083013760006020848301015280955050505050509250929050565b60008060408385031215612aab57600080fd5b82359150602083013561299681612953565b60008060408385031215612ad057600080fd5b50508035926020909101359150565b60008060008060008060c08789031215612af857600080fd5b8635612b0381612953565b95506020870135612b1381612953565b95989597505050506040840135936060810135936080820135935060a0909101359150565b6020808252603b908201527f57697468647261773a2057697468647261772072657761726420746f6b656e7360408201527f206166746572206e6578742052657761726420496e74657276616c0000000000606082015260800190565b634e487b7160e01b600052603260045260246000fd5b634e487b7160e01b600052601160045260246000fd5b600082612bde57634e487b7160e01b600052601260045260246000fd5b500490565b600060208284031215612bf557600080fd5b5051919050565b60208082526023908201527f57697468647261773a204e6f7420456e6f756768205265776172642042616c616040820152626e636560e81b606082015260800190565b6020808252602c908201527f46756e6374696f6e206d7573742062652063616c6c6564207468726f7567682060408201526b19195b1959d85d1958d85b1b60a21b606082015260800190565b6020808252602c908201527f46756e6374696f6e206d7573742062652063616c6c6564207468726f7567682060408201526b6163746976652070726f787960a01b606082015260800190565b600060208284031215612ce957600080fd5b815160ff811681146126d457600080fd5b818103818111156120c4576120c4612bab565b6000816000190483118215151615612d2757612d27612bab565b500290565b600060208284031215612d3e57600080fd5b815180151581146126d457600080fd5b808201808211156120c4576120c4612bab565b6020808252602b908201527f496e697469616c697a61626c653a20636f6e7472616374206973206e6f74206960408201526a6e697469616c697a696e6760a81b606082015260800190565b600181815b80851115612de7578160001904821115612dcd57612dcd612bab565b80851615612dda57918102915b93841c9390800290612db1565b509250929050565b600082612dfe575060016120c4565b81612e0b575060006120c4565b8160018114612e215760028114612e2b57612e47565b60019150506120c4565b60ff841115612e3c57612e3c612bab565b50506001821b6120c4565b5060208310610133831016604e8410600b8410161715612e6a575081810a6120c4565b612e748383612dac565b8060001904821115612e8857612e88612bab565b029392505050565b60006126d48383612def565b60008251612eae8184602087016128e3565b919091019291505056fe360894a13ba1a3210667c828492db98dca3e2076cc3735a920a3ca505d382bbc416464726573733a206c6f772d6c6576656c2064656c65676174652063616c6c206661696c6564a2646970667358221220bd52e5a51e3c0e3f07fcbd492f093921374e3d397ff0939a66b7443f43d40a1164736f6c63430008100033",
  "immutableReferences": {
    "687": [
      {
        "length": 32,
        "start": 2438
      },
      {
        "length": 32,
        "start": 2502
      },
      {
        "length": 32,
        "start": 2658
      },
      {
        "length": 32,
        "start": 2722
      },
      {
        "length": 32,
        "start": 2869
      }
    ]
  },
  "source": "//SPDX-License-Identifier: UNLICENSED\npragma solidity 0.8.16;\n\nimport \"@openzeppelin/contracts-upgradeable/proxy/utils/Initializable.sol\";\nimport \"@openzeppelin/contracts-upgradeable/proxy/utils/UUPSUpgradeable.sol\";\nimport \"@openzeppelin/contracts-upgradeable/utils/ContextUpgradeable.sol\";\nimport \"@openzeppelin/contracts-upgradeable/security/ReentrancyGuardUpgradeable.sol\";\nimport \"@openzeppelin/contracts-upgradeable/access/OwnableUpgradeable.sol\";\nimport \"@openzeppelin/contracts-upgradeable/security/PausableUpgradeable.sol\";\nimport \"@openzeppelin/contracts-upgradeable/token/ERC20/extensions/IERC20MetadataUpgradeable.sol\";\nimport \"@openzeppelin/contracts-upgradeable/token/ERC20/utils/SafeERC20Upgradeable.sol\";\n\n/**\n  @title CS Staking contract which helps to Deposit & Reward tokens\n  @author hariprakash\n  @notice Staking Pools, Deposit Token, Withdraw Tokens, Withdraw reward tokens,\n */\ncontract CalsoftStaking is\n    Initializable,\n    OwnableUpgradeable,\n    PausableUpgradeable,\n    ReentrancyGuardUpgradeable,\n    UUPSUpgradeable\n{\n    using SafeERC20Upgradeable for IERC20MetadataUpgradeable;\n\n    string public constant name = \"CS - Staking\";\n\n    // Total amount deposited on pool\n    mapping(uint256 => uint256) public totalDepositAmountInPool;\n    // Info of each pool.\n    PoolInfo[] public poolInfo;\n    // Info of each user.\n    mapping(uint256 => mapping(address => UserInfo)) public userInfo;\n    // Pool already created or not.\n    mapping(IERC20Upgradeable => mapping(IERC20Upgradeable => bool)) public hasPoolExist;\n    // Rewards Earned by pool\n    mapping(uint256 => mapping(address => uint256)) public rewardsEarned;\n\n    // Info of each user.\n    struct UserInfo {\n        uint256 amount; // How many tokens the user has provided.\n        uint256 depositStartTime; // Deposit start time in pool\n        bool hasDeposited; // Check is account Deposited\n        bool isDeposited; // Check is account currently deposited\n    }\n\n    // Info of each pool.\n    struct PoolInfo {\n        IERC20MetadataUpgradeable depositToken; // Address of deposit token contract\n        IERC20MetadataUpgradeable rewardToken; // Address of Reward token contract\n        uint256 startTime; // Pool's start time (in seconds)\n        uint256 endTime; // Pool's end time (in seconds)\n        uint256 rewardInterval; // Reward interval (in seconds)\n        uint256 rewardRate; // Reward rate in percentage (APR %)\n    }\n    event AddPool(\n        uint256 poolId,\n        IERC20MetadataUpgradeable depositToken,\n        IERC20MetadataUpgradeable rewardToken,\n        uint256 startTime,\n        uint256 endTime,\n        uint256 rewardInterval,\n        uint256 rewardRate\n    );\n    event Reward(address indexed from, address indexed to, uint256 amount);\n    event Deposit(\n        uint256 poolId,\n        address indexed from,\n        address indexed to,\n        uint256 amount\n    );\n    event UpdateDepositEndTime(uint256 endTime);\n    event WithdrawAll(address indexed user, uint256 pid, uint256 amount);\n    event WithdrawRewardTokensFromPool(\n        uint256 _pid,\n        address indexed tokenAddress,\n        address indexed _account,\n        uint256 _amount\n    );\n\n    /// @custom:oz-upgrades-unsafe-allow constructor\n    constructor() initializer {}\n\n    function initialize() public virtual initializer {\n        // initializing\n        __Pausable_init();\n        __Ownable_init_unchained();\n        __ReentrancyGuard_init_unchained();\n    }\n\n    function _authorizeUpgrade(address) internal virtual override onlyOwner {}\n\n    /**\n       @dev get pool length\n       @return current pool length\n    */\n    function poolLength() external view returns (uint256) {\n        return poolInfo.length;\n    }\n\n    /**\n       @dev get current block timestamp\n       @return current block timestamp\n    */\n    function getCurrentBlockTimestamp() external view returns (uint256) {\n        return block.timestamp;\n    }\n\n    /**\n       @dev setting deposit pool end time\n       @param _pid index of the array i.e pool id\n       @param _endTime when deposit pool ends\n    */\n    function setPoolDepositEndTime(uint256 _pid, uint256 _endTime)\n        external\n        virtual\n        onlyOwner\n        whenNotPaused\n    {\n        require(\n            _endTime >= block.timestamp,\n            \"EndTime must be greater than current timestamp\"\n        );\n        poolInfo[_pid].endTime = _endTime;\n        emit UpdateDepositEndTime(_endTime);\n    }\n\n    /** \n       @dev returns the total deposited tokens in pool and it is independent of the total tokens in pool keeps\n       @param _pid index of the array i.e pool id\n       @return total deposited amount in pool\n    */\n    function getTotalTokensDepositedInPool(uint256 _pid)\n        external\n        view\n        returns (uint256)\n    {\n        return totalDepositAmountInPool[_pid];\n    }\n\n    /** \n       @dev returns the total depsited user tokens in pool and it is independent of the total tokens in pool keeps\n       @param _pid index of the array i.e pool id\n       @return user deposited balance in particular pool\n    */\n    function getUserDepositedTokensInPool(uint256 _pid)\n        external\n        view\n        returns (uint256)\n    {\n        return userInfo[_pid][msg.sender].amount;\n    }\n\n    /**\n       @dev Add a new pool. Can only be called by the owner.\n       @param _depositToken user deposit token\n       @param _rewardToken user rewarded token\n       @param _startTime when pool starts\n       @param _endTime when pool ends\n       @param _rewardInterval reward interval between this reward interval in seconds\n       @param _rewardRate (APR) in %\n    */\n    function addPool(\n        IERC20MetadataUpgradeable _depositToken,\n        IERC20MetadataUpgradeable _rewardToken,\n        uint256 _startTime,\n        uint256 _endTime,\n        uint256 _rewardInterval,\n        uint256 _rewardRate\n    ) public onlyOwner whenNotPaused {\n        _beforeAddPool(\n            _depositToken,\n            _rewardToken,\n            _startTime,\n            _endTime,\n            _rewardRate\n        );\n        poolInfo.push(\n            PoolInfo({\n                depositToken: _depositToken,\n                rewardToken: _rewardToken,\n                startTime: _startTime,\n                endTime: _endTime,\n                rewardInterval: _rewardInterval,\n                rewardRate: _rewardRate\n            })\n        );\n        hasPoolExist[_depositToken][_rewardToken] = true;\n        uint256 _poolId = poolInfo.length - 1;\n        emit AddPool(\n            _poolId,\n            _depositToken,\n            _rewardToken,\n            _startTime,\n            _endTime,\n            _rewardInterval,\n            _rewardRate\n        );\n    }\n\n    /**\n       @dev AddPool validations.\n       @param _depositToken user deposit token\n       @param _rewardToken user rewarded token\n       @param _startTime when pool starts\n       @param _endTime when pool ends\n       @param _rewardRate (APR) in %\n    */\n    function _beforeAddPool(\n        IERC20MetadataUpgradeable _depositToken,\n        IERC20MetadataUpgradeable _rewardToken,\n        uint256 _startTime,\n        uint256 _endTime,\n        uint256 _rewardRate\n    ) internal virtual {\n        require(\n            _startTime >= block.timestamp,\n            \"OpeningTime must be greater than current timestamp\"\n        );\n        require(\n            _endTime >= _startTime,\n            \"Closing time cant be before opening time\"\n        );\n        require(\n            _rewardRate > 0,\n            \"Add Pool : Reward Rate(APR) in % Must be greater than 0\"\n        );\n        // require(\n        //     !hasPoolExist[_depositToken][_rewardToken],\n        //     \"Add Pool: Pair already created\"\n        // );\n    }     /**\n   * @dev Override to extend the way in which ether is converted to tokens.\n   * @param _weiAmount Value in wei to be converted into tokens\n   * @return Number of tokens that can be deposited with the specified _weiAmount\n   */\n  function _getTokenAmount(uint256 _weiAmount,uint256 decimal)\n    internal pure returns (uint256)\n  {\n    if(decimal <= 18) {\n      return _weiAmount / 10 ** (18-decimal);\n    } else {\n      return _weiAmount * 10 ** (decimal-18);\n    }\n  }\n function _getDepositTokenAmount(uint256 _weiAmount,uint256 decimal)\n    internal pure returns (uint256)\n  {\n    if(decimal <= 18) {\n      return _weiAmount * 10 ** (18-decimal);\n    } else {\n      return _weiAmount / 10 ** (decimal-18);\n    }\n  }\n  \n    /**\n       @dev Deposit token's.\n       @param _pid index of the array i.e pool id\n       @param _amount deposit amount\n    */\n    function deposit(uint256 _pid, uint256 _amount)\n        external\n        virtual\n        whenNotPaused\n    {\n        _beforeDeposit(_pid, _amount);\n        UserInfo storage user = userInfo[_pid][msg.sender];\n        //check if reward exist for this user if exist transfer it to the user\n        (uint256 reward, ) = calculateReward(_pid, msg.sender);\n        if (reward > 0) {\n            uint256 rewardTokens = poolInfo[_pid].rewardToken.balanceOf(\n                address(this)\n            );\n            require(\n                rewardTokens > reward,\n                \"Withdraw: Not Enough Reward Balance\"\n            );\n            SendRewardTo(_pid, reward, msg.sender);\n        }\n        bool transferStatus = poolInfo[_pid].depositToken.transferFrom(\n            msg.sender,\n            address(this),\n            _amount\n        );\n        if (transferStatus) {\n            // update user deposit balance in particular pool\n            user.amount = user.amount + _amount;\n            // update Contract deposit balance in pool\n            totalDepositAmountInPool[_pid] += _amount;\n            // save the time when they started staking in particular pool\n            user.depositStartTime = block.timestamp;\n            // update staking status in particular pool\n            user.hasDeposited = true;\n            user.isDeposited = true;\n            emit Deposit(_pid, msg.sender, address(this), _amount);\n        }\n    }\n\n    /**\n       @dev Deposit validations.\n       @param _pid index of the array i.e pool id\n       @param _amount deposit amount\n    */\n    function _beforeDeposit(uint256 _pid, uint256 _amount) internal virtual {\n        require(_amount > 0, \"Deposit: Amount cannot be 0\");\n        require(_pid <= poolInfo.length, \"Deposit: Pool not exist\");\n        require(\n            poolInfo[_pid].depositToken.balanceOf(msg.sender) >= _amount,\n            \"Deposit: Insufficient deposit token balance\"\n        );\n        require(\n            block.timestamp >= poolInfo[_pid].startTime,\n            \"Deposit: Pool not yet started\"\n        );\n        require(\n            block.timestamp <= poolInfo[_pid].endTime,\n            \"Deposit: Pool Ended\"\n        );\n    }\n\n    /**\n       @dev calculateReward() function returns the reward of the caller of this function\n       @param _pid index of the array i.e pool id\n       @param _rewardAddress find how much reward in this address\n       @return rewards and timedifference\n    */\n    function calculateReward(uint256 _pid, address _rewardAddress)\n        public\n        view\n        returns (uint256, uint256)\n    {\n        UserInfo storage user = userInfo[_pid][_rewardAddress];\n        uint256 balances = user.amount;\n        uint256 rewards = 0;\n        uint256 timeDifferences = 0;\n        if (balances > 0) {\n            uint256 _userBalance = _getDepositTokenAmount(balances , poolInfo[_pid].depositToken.decimals());\n            uint256 tokens = _getTokenAmount(_userBalance,poolInfo[_pid].rewardToken.decimals());\n            if (poolInfo[_pid].endTime > 0) {\n\n                require(user.depositStartTime < poolInfo[_pid].endTime, \"Pool ended , reward claimed already\");\n\n                if (block.timestamp > poolInfo[_pid].endTime) {\n                    timeDifferences =\n                        poolInfo[_pid].endTime -\n                        user.depositStartTime;\n                } else {\n                    timeDifferences = block.timestamp - user.depositStartTime;\n                }\n            } else {\n                timeDifferences = block.timestamp - user.depositStartTime;\n            }\n\n            rewards = ((tokens *\n                poolInfo[_pid].rewardRate *\n                timeDifferences) /\n                ((1 * 10**4) * poolInfo[_pid].rewardInterval));\n        }\n        return (rewards, timeDifferences);\n    }\n\n    /**\n       @dev function used to claim only the reward for the caller of the method\n       @param _pid index of the array i.e pool id\n    */\n    function claimMyReward(uint256 _pid) external nonReentrant whenNotPaused {\n        require(_pid <= poolInfo.length, \"Withdraw: Pool not exist\");\n        UserInfo storage user = userInfo[_pid][msg.sender];\n        require(\n            block.timestamp >= user.depositStartTime,\n            \"Withdraw: Withdraw reward tokens after next Reward Interval\"\n        );\n        require(\n            user.isDeposited,\n            \"Withdraw: No deposited token balance available\"\n        );\n        uint256 balance = user.amount;\n        require(balance > 0, \"Withdraw: Balance cannot be 0\");\n        (uint256 reward, uint256 timeDifferences) = calculateReward(\n            _pid,\n            msg.sender\n        );\n        require(reward > 0, \"Withdraw: Calculated Reward zero\");\n        require(\n            timeDifferences / poolInfo[_pid].rewardInterval >= 1,\n            \"Withdraw: Can be claimed only after the interval\"\n        );\n        uint256 rewardTokens = poolInfo[_pid].rewardToken.balanceOf(\n            address(this)\n        );\n        require(rewardTokens > reward, \"Withdraw: Not Enough Reward Balance\");\n        bool claimRewardStatus = SendRewardTo(_pid, reward, msg.sender);\n\n        require(claimRewardStatus, \"Withdraw: Claim Reward Failed\");\n        //depositStartTime (set to current time)\n        user.depositStartTime = block.timestamp;\n    }\n\n    /**\n       @dev check if the reward token is same as the deposited token\n         If deposited token and reward token is same then -\n         Contract should always contain more or equal tokens than deposited tokens\n       @param _pid index of the array i.e pool id\n       @param calculatedReward reward send to caller\n       @param _toAddress caller address got reward\n    */\n    function SendRewardTo(\n        uint256 _pid,\n        uint256 calculatedReward,\n        address _toAddress\n    ) internal virtual returns (bool) {\n        PoolInfo storage pool = poolInfo[_pid];\n        require(_toAddress != address(0), \"Withdraw: Address cannot be zero\");\n        require(\n            pool.rewardToken.balanceOf(address(this)) >= calculatedReward,\n            \"Withdraw: Not enough reward balance\"\n        );\n        if (pool.depositToken == pool.rewardToken) {\n            if (\n                (pool.rewardToken.balanceOf(address(this)) - calculatedReward) <\n                totalDepositAmountInPool[_pid]\n            ) {\n                calculatedReward = 0;\n            }\n        }\n        bool successStatus = false;\n        if (calculatedReward > 0) {\n            uint256 transferAmount = calculatedReward;\n            calculatedReward = 0;\n            bool transferStatus = pool.rewardToken.transfer(\n                _toAddress,\n                transferAmount\n            );\n            require(transferStatus, \"Withdraw: Transfer Failed\");\n            // if (userInfo[_pid][_toAddress].amount == 0) {\n            //     userInfo[_pid][_toAddress].isDeposited = false;\n            // }\n            rewardsEarned[_pid][_toAddress] += transferAmount;\n            // oldReward[_toAddress] = 0;\n            //emit Reward(address(this), _toAddress, calculatedReward);\n            successStatus = true;\n        }\n        return successStatus;\n    }\n\n    /**\n       @dev Emergency withdraw all deposited tokens and reward tokens\n       @param _pid index of the array i.e pool id\n     */\n    function withdrawAll(uint256 _pid) external whenNotPaused {\n        uint256 reward;\n        require(_pid <= poolInfo.length, \"WithdrawAll: Pool not exist\");\n        PoolInfo storage pool = poolInfo[_pid];\n        UserInfo storage user = userInfo[_pid][msg.sender];\n        require(\n            block.timestamp >= user.depositStartTime,\n            \"Withdraw: Withdraw reward tokens after next Reward Interval\"\n        );\n        require(user.amount > 0, \"WithdrawAll: Not enough reward balance\");\n\n        if(user.depositStartTime < pool.endTime){\n        (reward, ) = calculateReward(_pid, msg.sender);\n        }\n\n        uint256 amount = user.amount;\n        user.amount = 0;\n        user.isDeposited = false;\n        if (reward > 0) {\n            uint256 rewardTokens = poolInfo[_pid].rewardToken.balanceOf(\n                address(this)\n            );\n            require(\n                rewardTokens > reward,\n                \"WithdrawAll: Not Enough Reward Balance\"\n            );\n            bool rewardSuccessStatus = SendRewardTo(_pid, reward, msg.sender);\n            require(rewardSuccessStatus, \"WithdrawAll: Claim Reward Failed\");\n        }\n        pool.depositToken.safeTransfer(address(msg.sender), amount);\n        emit WithdrawAll(msg.sender, _pid, amount);\n    }\n\n    /**\n       @dev Withdraw reward tokens from particular pool\n       @param _pid index of the array i.e pool id\n     */\n    function withdrawRewardTokensFromPool(uint256 _pid, uint256 _amount)\n        external\n        onlyOwner\n        nonReentrant\n    {\n        poolInfo[_pid].rewardToken.safeTransfer(msg.sender, _amount);\n        emit WithdrawRewardTokensFromPool(\n            _pid,\n            address(poolInfo[_pid].rewardToken),\n            msg.sender,\n            _amount\n        );\n    }\n}\n",
  "sourcePath": "/home/rorschack/Desktop/hari/calsoft-staking-contract/contracts/CalsoftStaking.sol",
  "compiler": {
    "name": "solc",
    "version": "0.8.16+commit.07a7930e.Emscripten.clang"
  },
  "schemaVersion": "3.4.16",
  "updatedAt": "2024-05-22T13:16:46.243Z",
  "networkType": "ethereum",
  "devdoc": {
    "author": "hariprakash",
    "kind": "dev",
    "methods": {
      "addPool(address,address,uint256,uint256,uint256,uint256)": {
        "details": "Add a new pool. Can only be called by the owner.",
        "params": {
          "_depositToken": "user deposit token",
          "_endTime": "when pool ends",
          "_rewardInterval": "reward interval between this reward interval in seconds",
          "_rewardRate": "(APR) in %",
          "_rewardToken": "user rewarded token",
          "_startTime": "when pool starts"
        }
      },
      "calculateReward(uint256,address)": {
        "details": "calculateReward() function returns the reward of the caller of this function",
        "params": {
          "_pid": "index of the array i.e pool id",
          "_rewardAddress": "find how much reward in this address"
        },
        "returns": {
          "_0": "rewards and timedifference"
        }
      },
      "claimMyReward(uint256)": {
        "details": "function used to claim only the reward for the caller of the method",
        "params": {
          "_pid": "index of the array i.e pool id"
        }
      },
      "constructor": {
        "custom:oz-upgrades-unsafe-allow": "constructor"
      },
      "deposit(uint256,uint256)": {
        "details": "Deposit token's.",
        "params": {
          "_amount": "deposit amount",
          "_pid": "index of the array i.e pool id"
        }
      },
      "getCurrentBlockTimestamp()": {
        "details": "get current block timestamp",
        "returns": {
          "_0": "current block timestamp"
        }
      },
      "getTotalTokensDepositedInPool(uint256)": {
        "details": "returns the total deposited tokens in pool and it is independent of the total tokens in pool keeps",
        "params": {
          "_pid": "index of the array i.e pool id"
        },
        "returns": {
          "_0": "total deposited amount in pool"
        }
      },
      "getUserDepositedTokensInPool(uint256)": {
        "details": "returns the total depsited user tokens in pool and it is independent of the total tokens in pool keeps",
        "params": {
          "_pid": "index of the array i.e pool id"
        },
        "returns": {
          "_0": "user deposited balance in particular pool"
        }
      },
      "owner()": {
        "details": "Returns the address of the current owner."
      },
      "paused()": {
        "details": "Returns true if the contract is paused, and false otherwise."
      },
      "poolLength()": {
        "details": "get pool length",
        "returns": {
          "_0": "current pool length"
        }
      },
      "proxiableUUID()": {
        "details": "Implementation of the ERC1822 {proxiableUUID} function. This returns the storage slot used by the implementation. It is used to validate the implementation's compatibility when performing an upgrade. IMPORTANT: A proxy pointing at a proxiable contract should not be considered proxiable itself, because this risks bricking a proxy that upgrades to it, by delegating to itself until out of gas. Thus it is critical that this function revert if invoked through a proxy. This is guaranteed by the `notDelegated` modifier."
      },
      "renounceOwnership()": {
        "details": "Leaves the contract without owner. It will not be possible to call `onlyOwner` functions. Can only be called by the current owner. NOTE: Renouncing ownership will leave the contract without an owner, thereby disabling any functionality that is only available to the owner."
      },
      "setPoolDepositEndTime(uint256,uint256)": {
        "details": "setting deposit pool end time",
        "params": {
          "_endTime": "when deposit pool ends",
          "_pid": "index of the array i.e pool id"
        }
      },
      "transferOwnership(address)": {
        "details": "Transfers ownership of the contract to a new account (`newOwner`). Can only be called by the current owner."
      },
      "upgradeTo(address)": {
        "custom:oz-upgrades-unsafe-allow-reachable": "delegatecall",
        "details": "Upgrade the implementation of the proxy to `newImplementation`. Calls {_authorizeUpgrade}. Emits an {Upgraded} event."
      },
      "upgradeToAndCall(address,bytes)": {
        "custom:oz-upgrades-unsafe-allow-reachable": "delegatecall",
        "details": "Upgrade the implementation of the proxy to `newImplementation`, and subsequently execute the function call encoded in `data`. Calls {_authorizeUpgrade}. Emits an {Upgraded} event."
      },
      "withdrawAll(uint256)": {
        "details": "Emergency withdraw all deposited tokens and reward tokens",
        "params": {
          "_pid": "index of the array i.e pool id"
        }
      },
      "withdrawRewardTokensFromPool(uint256,uint256)": {
        "details": "Withdraw reward tokens from particular pool",
        "params": {
          "_pid": "index of the array i.e pool id"
        }
      }
    },
    "title": "CS Staking contract which helps to Deposit & Reward tokens",
    "version": 1
  },
  "userdoc": {
    "kind": "user",
    "methods": {},
    "notice": "Staking Pools, Deposit Token, Withdraw Tokens, Withdraw reward tokens,",
    "version": 1
  }
}